{"abi":[{"type":"constructor","inputs":[{"name":"_owner","type":"address","internalType":"address"}],"stateMutability":"nonpayable"},{"type":"function","name":"addressManager","inputs":[],"outputs":[{"name":"","type":"address","internalType":"contract AddressManager"}],"stateMutability":"view"},{"type":"function","name":"changeProxyAdmin","inputs":[{"name":"_proxy","type":"address","internalType":"address payable"},{"name":"_newAdmin","type":"address","internalType":"address"}],"outputs":[],"stateMutability":"nonpayable"},{"type":"function","name":"getProxyAdmin","inputs":[{"name":"_proxy","type":"address","internalType":"address payable"}],"outputs":[{"name":"","type":"address","internalType":"address"}],"stateMutability":"view"},{"type":"function","name":"getProxyImplementation","inputs":[{"name":"_proxy","type":"address","internalType":"address"}],"outputs":[{"name":"","type":"address","internalType":"address"}],"stateMutability":"view"},{"type":"function","name":"implementationName","inputs":[{"name":"","type":"address","internalType":"address"}],"outputs":[{"name":"","type":"string","internalType":"string"}],"stateMutability":"view"},{"type":"function","name":"isUpgrading","inputs":[],"outputs":[{"name":"","type":"bool","internalType":"bool"}],"stateMutability":"view"},{"type":"function","name":"owner","inputs":[],"outputs":[{"name":"","type":"address","internalType":"address"}],"stateMutability":"view"},{"type":"function","name":"proxyType","inputs":[{"name":"","type":"address","internalType":"address"}],"outputs":[{"name":"","type":"uint8","internalType":"enum ProxyAdmin.ProxyType"}],"stateMutability":"view"},{"type":"function","name":"renounceOwnership","inputs":[],"outputs":[],"stateMutability":"nonpayable"},{"type":"function","name":"setAddress","inputs":[{"name":"_name","type":"string","internalType":"string"},{"name":"_address","type":"address","internalType":"address"}],"outputs":[],"stateMutability":"nonpayable"},{"type":"function","name":"setAddressManager","inputs":[{"name":"_address","type":"address","internalType":"contract AddressManager"}],"outputs":[],"stateMutability":"nonpayable"},{"type":"function","name":"setImplementationName","inputs":[{"name":"_address","type":"address","internalType":"address"},{"name":"_name","type":"string","internalType":"string"}],"outputs":[],"stateMutability":"nonpayable"},{"type":"function","name":"setProxyType","inputs":[{"name":"_address","type":"address","internalType":"address"},{"name":"_type","type":"uint8","internalType":"enum ProxyAdmin.ProxyType"}],"outputs":[],"stateMutability":"nonpayable"},{"type":"function","name":"setUpgrading","inputs":[{"name":"_upgrading","type":"bool","internalType":"bool"}],"outputs":[],"stateMutability":"nonpayable"},{"type":"function","name":"transferOwnership","inputs":[{"name":"newOwner","type":"address","internalType":"address"}],"outputs":[],"stateMutability":"nonpayable"},{"type":"function","name":"upgrade","inputs":[{"name":"_proxy","type":"address","internalType":"address payable"},{"name":"_implementation","type":"address","internalType":"address"}],"outputs":[],"stateMutability":"nonpayable"},{"type":"function","name":"upgradeAndCall","inputs":[{"name":"_proxy","type":"address","internalType":"address payable"},{"name":"_implementation","type":"address","internalType":"address"},{"name":"_data","type":"bytes","internalType":"bytes"}],"outputs":[],"stateMutability":"payable"},{"type":"event","name":"OwnershipTransferred","inputs":[{"name":"previousOwner","type":"address","indexed":true,"internalType":"address"},{"name":"newOwner","type":"address","indexed":true,"internalType":"address"}],"anonymous":false}],"bytecode":{"object":"0x60806040523480156200001157600080fd5b5060405162001a5f38038062001a5f8339810160408190526200003491620000a1565b6200003f3362000051565b6200004a8162000051565b50620000d3565b600080546001600160a01b038381166001600160a01b0319831681178455604051919092169283917f8be0079c531659141344cd1fd0a4f28419497f9722a3daafe3b4186f6b6457e09190a35050565b600060208284031215620000b457600080fd5b81516001600160a01b0381168114620000cc57600080fd5b9392505050565b61197c80620000e36000396000f3fe60806040526004361061010e5760003560e01c8063860f7cda116100a557806399a88ec411610074578063b794726211610059578063b794726214610329578063f2fde38b14610364578063f3b7dead1461038457600080fd5b806399a88ec4146102e95780639b2ea4bd1461030957600080fd5b8063860f7cda1461026b5780638d52d4a01461028b5780638da5cb5b146102ab5780639623609d146102d657600080fd5b80633ab76e9f116100e15780633ab76e9f146101cc5780636bd9f516146101f9578063715018a6146102365780637eff275e1461024b57600080fd5b80630652b57a1461011357806307c8f7b014610135578063204e1c7a14610155578063238181ae1461019f575b600080fd5b34801561011f57600080fd5b5061013361012e3660046111f9565b6103a4565b005b34801561014157600080fd5b50610133610150366004611216565b6103f3565b34801561016157600080fd5b506101756101703660046111f9565b610445565b60405173ffffffffffffffffffffffffffffffffffffffff90911681526020015b60405180910390f35b3480156101ab57600080fd5b506101bf6101ba3660046111f9565b61066b565b60405161019691906112ae565b3480156101d857600080fd5b506003546101759073ffffffffffffffffffffffffffffffffffffffff1681565b34801561020557600080fd5b506102296102143660046111f9565b60016020526000908152604090205460ff1681565b60405161019691906112f0565b34801561024257600080fd5b50610133610705565b34801561025757600080fd5b50610133610266366004611331565b610719565b34801561027757600080fd5b5061013361028636600461148c565b6108cc565b34801561029757600080fd5b506101336102a63660046114dc565b610903565b3480156102b757600080fd5b5060005473ffffffffffffffffffffffffffffffffffffffff16610175565b6101336102e436600461150e565b610977565b3480156102f557600080fd5b50610133610304366004611331565b610b8e565b34801561031557600080fd5b50610133610324366004611584565b610e1e565b34801561033557600080fd5b5060035474010000000000000000000000000000000000000000900460ff166040519015158152602001610196565b34801561037057600080fd5b5061013361037f3660046111f9565b610eb4565b34801561039057600080fd5b5061017561039f3660046111f9565b610f6b565b6103ac6110e1565b600380547fffffffffffffffffffffffff00000000000000000000000000000000000000001673ffffffffffffffffffffffffffffffffffffffff92909216919091179055565b6103fb6110e1565b6003805491151574010000000000000000000000000000000000000000027fffffffffffffffffffffff00ffffffffffffffffffffffffffffffffffffffff909216919091179055565b73ffffffffffffffffffffffffffffffffffffffff811660009081526001602052604081205460ff1681816002811115610481576104816112c1565b036104fc578273ffffffffffffffffffffffffffffffffffffffff16635c60da1b6040518163ffffffff1660e01b8152600401602060405180830381865afa1580156104d1573d6000803e3d6000fd5b505050506040513d601f19601f820116820180604052508101906104f591906115cb565b9392505050565b6001816002811115610510576105106112c1565b03610560578273ffffffffffffffffffffffffffffffffffffffff1663aaf10f426040518163ffffffff1660e01b8152600401602060405180830381865afa1580156104d1573d6000803e3d6000fd5b6002816002811115610574576105746112c1565b036105fe5760035473ffffffffffffffffffffffffffffffffffffffff8481166000908152600260205260409081902090517fbf40fac1000000000000000000000000000000000000000000000000000000008152919092169163bf40fac1916105e19190600401611635565b602060405180830381865afa1580156104d1573d6000803e3d6000fd5b6040517f08c379a000000000000000000000000000000000000000000000000000000000815260206004820152601e60248201527f50726f787941646d696e3a20756e6b6e6f776e2070726f78792074797065000060448201526064015b60405180910390fd5b50919050565b60026020526000908152604090208054610684906115e8565b80601f01602080910402602001604051908101604052809291908181526020018280546106b0906115e8565b80156106fd5780601f106106d2576101008083540402835291602001916106fd565b820191906000526020600020905b8154815290600101906020018083116106e057829003601f168201915b505050505081565b61070d6110e1565b6107176000611162565b565b6107216110e1565b73ffffffffffffffffffffffffffffffffffffffff821660009081526001602052604081205460ff169081600281111561075d5761075d6112c1565b036107e9576040517f8f28397000000000000000000000000000000000000000000000000000000000815273ffffffffffffffffffffffffffffffffffffffff8381166004830152841690638f283970906024015b600060405180830381600087803b1580156107cc57600080fd5b505af11580156107e0573d6000803e3d6000fd5b50505050505050565b60018160028111156107fd576107fd6112c1565b03610856576040517f13af403500000000000000000000000000000000000000000000000000000000815273ffffffffffffffffffffffffffffffffffffffff83811660048301528416906313af4035906024016107b2565b600281600281111561086a5761086a6112c1565b036105fe576003546040517ff2fde38b00000000000000000000000000000000000000000000000000000000815273ffffffffffffffffffffffffffffffffffffffff84811660048301529091169063f2fde38b906024016107b2565b505050565b6108d46110e1565b73ffffffffffffffffffffffffffffffffffffffff821660009081526002602052604090206108c78282611724565b61090b6110e1565b73ffffffffffffffffffffffffffffffffffffffff82166000908152600160208190526040909120805483927fffffffffffffffffffffffffffffffffffffffffffffffffffffffffffffff009091169083600281111561096e5761096e6112c1565b02179055505050565b61097f6110e1565b73ffffffffffffffffffffffffffffffffffffffff831660009081526001602052604081205460ff16908160028111156109bb576109bb6112c1565b03610a81576040517f4f1ef28600000000000000000000000000000000000000000000000000000000815273ffffffffffffffffffffffffffffffffffffffff851690634f1ef286903490610a16908790879060040161183e565b60006040518083038185885af1158015610a34573d6000803e3d6000fd5b50505050506040513d6000823e601f3d9081017fffffffffffffffffffffffffffffffffffffffffffffffffffffffffffffffe0168201604052610a7b9190810190611875565b50610b88565b610a8b8484610b8e565b60008473ffffffffffffffffffffffffffffffffffffffff163484604051610ab391906118ec565b60006040518083038185875af1925050503d8060008114610af0576040519150601f19603f3d011682016040523d82523d6000602084013e610af5565b606091505b5050905080610b86576040517f08c379a000000000000000000000000000000000000000000000000000000000815260206004820152602e60248201527f50726f787941646d696e3a2063616c6c20746f2070726f78792061667465722060448201527f75706772616465206661696c6564000000000000000000000000000000000000606482015260840161065c565b505b50505050565b610b966110e1565b73ffffffffffffffffffffffffffffffffffffffff821660009081526001602052604081205460ff1690816002811115610bd257610bd26112c1565b03610c2b576040517f3659cfe600000000000000000000000000000000000000000000000000000000815273ffffffffffffffffffffffffffffffffffffffff8381166004830152841690633659cfe6906024016107b2565b6001816002811115610c3f57610c3f6112c1565b03610cbe576040517f9b0b0fda0000000000000000000000000000000000000000000000000000000081527f360894a13ba1a3210667c828492db98dca3e2076cc3735a920a3ca505d382bbc600482015273ffffffffffffffffffffffffffffffffffffffff8381166024830152841690639b0b0fda906044016107b2565b6002816002811115610cd257610cd26112c1565b03610e165773ffffffffffffffffffffffffffffffffffffffff831660009081526002602052604081208054610d07906115e8565b80601f0160208091040260200160405190810160405280929190818152602001828054610d33906115e8565b8015610d805780601f10610d5557610100808354040283529160200191610d80565b820191906000526020600020905b815481529060010190602001808311610d6357829003601f168201915b50506003546040517f9b2ea4bd00000000000000000000000000000000000000000000000000000000815294955073ffffffffffffffffffffffffffffffffffffffff1693639b2ea4bd9350610dde92508591508790600401611908565b600060405180830381600087803b158015610df857600080fd5b505af1158015610e0c573d6000803e3d6000fd5b5050505050505050565b6108c7611940565b610e266110e1565b6003546040517f9b2ea4bd00000000000000000000000000000000000000000000000000000000815273ffffffffffffffffffffffffffffffffffffffff90911690639b2ea4bd90610e7e9085908590600401611908565b600060405180830381600087803b158015610e9857600080fd5b505af1158015610eac573d6000803e3d6000fd5b505050505050565b610ebc6110e1565b73ffffffffffffffffffffffffffffffffffffffff8116610f5f576040517f08c379a000000000000000000000000000000000000000000000000000000000815260206004820152602660248201527f4f776e61626c653a206e6577206f776e657220697320746865207a65726f206160448201527f6464726573730000000000000000000000000000000000000000000000000000606482015260840161065c565b610f6881611162565b50565b73ffffffffffffffffffffffffffffffffffffffff811660009081526001602052604081205460ff1681816002811115610fa757610fa76112c1565b03610ff7578273ffffffffffffffffffffffffffffffffffffffff1663f851a4406040518163ffffffff1660e01b8152600401602060405180830381865afa1580156104d1573d6000803e3d6000fd5b600181600281111561100b5761100b6112c1565b0361105b578273ffffffffffffffffffffffffffffffffffffffff1663893d20e86040518163ffffffff1660e01b8152600401602060405180830381865afa1580156104d1573d6000803e3d6000fd5b600281600281111561106f5761106f6112c1565b036105fe57600360009054906101000a900473ffffffffffffffffffffffffffffffffffffffff1673ffffffffffffffffffffffffffffffffffffffff16638da5cb5b6040518163ffffffff1660e01b8152600401602060405180830381865afa1580156104d1573d6000803e3d6000fd5b60005473ffffffffffffffffffffffffffffffffffffffff163314610717576040517f08c379a000000000000000000000000000000000000000000000000000000000815260206004820181905260248201527f4f776e61626c653a2063616c6c6572206973206e6f7420746865206f776e6572604482015260640161065c565b6000805473ffffffffffffffffffffffffffffffffffffffff8381167fffffffffffffffffffffffff0000000000000000000000000000000000000000831681178455604051919092169283917f8be0079c531659141344cd1fd0a4f28419497f9722a3daafe3b4186f6b6457e09190a35050565b73ffffffffffffffffffffffffffffffffffffffff81168114610f6857600080fd5b60006020828403121561120b57600080fd5b81356104f5816111d7565b60006020828403121561122857600080fd5b813580151581146104f557600080fd5b60005b8381101561125357818101518382015260200161123b565b83811115610b885750506000910152565b6000815180845261127c816020860160208601611238565b601f017fffffffffffffffffffffffffffffffffffffffffffffffffffffffffffffffe0169290920160200192915050565b6020815260006104f56020830184611264565b7f4e487b7100000000000000000000000000000000000000000000000000000000600052602160045260246000fd5b602081016003831061132b577f4e487b7100000000000000000000000000000000000000000000000000000000600052602160045260246000fd5b91905290565b6000806040838503121561134457600080fd5b823561134f816111d7565b9150602083013561135f816111d7565b809150509250929050565b7f4e487b7100000000000000000000000000000000000000000000000000000000600052604160045260246000fd5b604051601f82017fffffffffffffffffffffffffffffffffffffffffffffffffffffffffffffffe016810167ffffffffffffffff811182821017156113e0576113e061136a565b604052919050565b600067ffffffffffffffff8211156114025761140261136a565b50601f017fffffffffffffffffffffffffffffffffffffffffffffffffffffffffffffffe01660200190565b600061144161143c846113e8565b611399565b905082815283838301111561145557600080fd5b828260208301376000602084830101529392505050565b600082601f83011261147d57600080fd5b6104f58383356020850161142e565b6000806040838503121561149f57600080fd5b82356114aa816111d7565b9150602083013567ffffffffffffffff8111156114c657600080fd5b6114d28582860161146c565b9150509250929050565b600080604083850312156114ef57600080fd5b82356114fa816111d7565b915060208301356003811061135f57600080fd5b60008060006060848603121561152357600080fd5b833561152e816111d7565b9250602084013561153e816111d7565b9150604084013567ffffffffffffffff81111561155a57600080fd5b8401601f8101861361156b57600080fd5b61157a8682356020840161142e565b9150509250925092565b6000806040838503121561159757600080fd5b823567ffffffffffffffff8111156115ae57600080fd5b6115ba8582860161146c565b925050602083013561135f816111d7565b6000602082840312156115dd57600080fd5b81516104f5816111d7565b600181811c908216806115fc57607f821691505b602082108103610665577f4e487b7100000000000000000000000000000000000000000000000000000000600052602260045260246000fd5b6000602080835260008454611649816115e8565b8084870152604060018084166000811461166a57600181146116a2576116d0565b7fffffffffffffffffffffffffffffffffffffffffffffffffffffffffffffff008516838a01528284151560051b8a010195506116d0565b896000528660002060005b858110156116c85781548b82018601529083019088016116ad565b8a0184019650505b509398975050505050505050565b601f8211156108c757600081815260208120601f850160051c810160208610156117055750805b601f850160051c820191505b81811015610eac57828155600101611711565b815167ffffffffffffffff81111561173e5761173e61136a565b6117528161174c84546115e8565b846116de565b602080601f8311600181146117a5576000841561176f5750858301515b7fffffffffffffffffffffffffffffffffffffffffffffffffffffffffffffffff600386901b1c1916600185901b178555610eac565b6000858152602081207fffffffffffffffffffffffffffffffffffffffffffffffffffffffffffffffe08616915b828110156117f2578886015182559484019460019091019084016117d3565b508582101561182e57878501517fffffffffffffffffffffffffffffffffffffffffffffffffffffffffffffffff600388901b60f8161c191681555b5050505050600190811b01905550565b73ffffffffffffffffffffffffffffffffffffffff8316815260406020820152600061186d6040830184611264565b949350505050565b60006020828403121561188757600080fd5b815167ffffffffffffffff81111561189e57600080fd5b8201601f810184136118af57600080fd5b80516118bd61143c826113e8565b8181528560208385010111156118d257600080fd5b6118e3826020830160208601611238565b95945050505050565b600082516118fe818460208701611238565b9190910192915050565b60408152600061191b6040830185611264565b905073ffffffffffffffffffffffffffffffffffffffff831660208301529392505050565b7f4e487b7100000000000000000000000000000000000000000000000000000000600052600160045260246000fdfea164736f6c634300080f000a","linkReferences":{}},"methodIdentifiers":{"addressManager()":"3ab76e9f","changeProxyAdmin(address,address)":"7eff275e","getProxyAdmin(address)":"f3b7dead","getProxyImplementation(address)":"204e1c7a","implementationName(address)":"238181ae","isUpgrading()":"b7947262","owner()":"8da5cb5b","proxyType(address)":"6bd9f516","renounceOwnership()":"715018a6","setAddress(string,address)":"9b2ea4bd","setAddressManager(address)":"0652b57a","setImplementationName(address,string)":"860f7cda","setProxyType(address,uint8)":"8d52d4a0","setUpgrading(bool)":"07c8f7b0","transferOwnership(address)":"f2fde38b","upgrade(address,address)":"99a88ec4","upgradeAndCall(address,address,bytes)":"9623609d"},"storageLayout":{"storage":[{"astId":45750,"contract":"src/universal/ProxyAdmin.sol:ProxyAdmin","label":"_owner","offset":0,"slot":"0","type":"t_address"},{"astId":102341,"contract":"src/universal/ProxyAdmin.sol:ProxyAdmin","label":"proxyType","offset":0,"slot":"1","type":"t_mapping(t_address,t_enum(ProxyType)102335)"},{"astId":102346,"contract":"src/universal/ProxyAdmin.sol:ProxyAdmin","label":"implementationName","offset":0,"slot":"2","type":"t_mapping(t_address,t_string_storage)"},{"astId":102350,"contract":"src/universal/ProxyAdmin.sol:ProxyAdmin","label":"addressManager","offset":0,"slot":"3","type":"t_contract(AddressManager)92564"},{"astId":102353,"contract":"src/universal/ProxyAdmin.sol:ProxyAdmin","label":"upgrading","offset":20,"slot":"3","type":"t_bool"}],"types":{"t_address":{"encoding":"inplace","label":"address","numberOfBytes":"20"},"t_bool":{"encoding":"inplace","label":"bool","numberOfBytes":"1"},"t_contract(AddressManager)92564":{"encoding":"inplace","label":"contract AddressManager","numberOfBytes":"20"},"t_enum(ProxyType)102335":{"encoding":"inplace","label":"enum ProxyAdmin.ProxyType","numberOfBytes":"1"},"t_mapping(t_address,t_enum(ProxyType)102335)":{"encoding":"mapping","key":"t_address","label":"mapping(address => enum ProxyAdmin.ProxyType)","numberOfBytes":"32","value":"t_enum(ProxyType)102335"},"t_mapping(t_address,t_string_storage)":{"encoding":"mapping","key":"t_address","label":"mapping(address => string)","numberOfBytes":"32","value":"t_string_storage"},"t_string_storage":{"encoding":"bytes","label":"string","numberOfBytes":"32"}}},"userdoc":{"version":1,"kind":"user","methods":{"addressManager()":{"notice":"The address of the address manager, this is required to manage the         ResolvedDelegateProxy type."},"changeProxyAdmin(address,address)":{"notice":"Updates the admin of the given proxy address."},"getProxyAdmin(address)":{"notice":"Returns the admin of the given proxy address."},"getProxyImplementation(address)":{"notice":"Returns the implementation of the given proxy address."},"implementationName(address)":{"notice":"A reverse mapping of addresses to names held in the AddressManager. This must be         manually kept up to date with changes in the AddressManager for this contract         to be able to work as an admin for the ResolvedDelegateProxy type."},"proxyType(address)":{"notice":"A mapping of proxy types, used for backwards compatibility."},"setAddressManager(address)":{"notice":"Set the address of the AddressManager. This is required to manage legacy         ResolvedDelegateProxy type proxy contracts."},"setImplementationName(address,string)":{"notice":"Sets the implementation name for a given address. Only required for         ResolvedDelegateProxy type proxies that have an implementation name."},"setProxyType(address,uint8)":{"notice":"Sets the proxy type for a given address. Only required for non-standard (legacy)         proxy types."},"upgrade(address,address)":{"notice":"Changes a proxy's implementation contract."},"upgradeAndCall(address,address,bytes)":{"notice":"Changes a proxy's implementation contract and delegatecalls the new implementation         with some given data. Useful for atomic upgrade-and-initialize calls."}},"notice":"This is an auxiliary contract meant to be assigned as the admin of an ERC1967 Proxy,         based on the OpenZeppelin implementation. It has backwards compatibility logic to work         with the various types of proxies that have been deployed by Optimism in the past."},"devdoc":{"version":1,"kind":"dev","methods":{"changeProxyAdmin(address,address)":{"params":{"_newAdmin":"Address of the new proxy admin.","_proxy":"Address of the proxy to update."}},"constructor":{"params":{"_owner":"Address of the initial owner of this contract."}},"getProxyAdmin(address)":{"params":{"_proxy":"Address of the proxy to get the admin of."},"returns":{"_0":"Address of the admin of the proxy."}},"getProxyImplementation(address)":{"params":{"_proxy":"Address of the proxy to get the implementation of."},"returns":{"_0":"Address of the implementation of the proxy."}},"isUpgrading()":{"returns":{"_0":"Whether or not there is an upgrade going on. May not actually tell you whether an         upgrade is going on, since we don't currently plan to use this variable for anything         other than a legacy indicator to fix a UX bug in the ChugSplash proxy."}},"owner()":{"details":"Returns the address of the current owner."},"renounceOwnership()":{"details":"Leaves the contract without owner. It will not be possible to call `onlyOwner` functions anymore. Can only be called by the current owner. NOTE: Renouncing ownership will leave the contract without an owner, thereby removing any functionality that is only available to the owner."},"setAddress(string,address)":{"params":{"_address":"Address to attach to the given name.","_name":"Name to set within the AddressManager."}},"setAddressManager(address)":{"params":{"_address":"Address of the AddressManager."}},"setImplementationName(address,string)":{"params":{"_address":"Address of the ResolvedDelegateProxy.","_name":"Name of the implementation for the proxy."}},"setProxyType(address,uint8)":{"params":{"_address":"Address of the proxy.","_type":"Type of the proxy."}},"setUpgrading(bool)":{"params":{"_upgrading":"Whether or not the system is upgrading."}},"transferOwnership(address)":{"details":"Transfers ownership of the contract to a new account (`newOwner`). Can only be called by the current owner."},"upgrade(address,address)":{"params":{"_implementation":"Address of the new implementation address.","_proxy":"Address of the proxy to upgrade."}},"upgradeAndCall(address,address,bytes)":{"params":{"_data":"Data to trigger the new implementation with.","_implementation":"Address of the new implementation address.","_proxy":"Address of the proxy to upgrade."}}},"title":"ProxyAdmin"},"id":223}